:100000000C94B2030C94CF030C94CF030C94CF0345
:100010000C94CF030C94CF030C94CF030C94CF0318
:100020000C94CF030C94CF030C94CF030C94CF0308
:100030000C94CF030C94CF030C94CF030C94CF03F8
:100040000C94CF030C94CF030C94CF030C94CF03E8
:100050000C94CF030C94CF030C94CF030C94CF03D8
:100060000C94CF030C94CF0307E007E0181818187E
:1000700020042004400240024002400284218421E6
:100080008421842180018001800180018001800120
:100090008001842147E243C2400240022004200440
:1000A0001818181807E007E007E007E018181818F4
:1000B00020042004400240024002400280218001CE
:1000C0008C218E718001800180018001800180017E
:1000D0008421842143C243C2400240022004200400
:1000E0001818181807E007E00000000000000000E2
:1000F0000000000000000000000000000000000000
:1001000000000000000000000000000000000000EF
:1001100000000000000000000000000000003800A7
:100120000000000000000000000000000000380097
:1001300000000000000000000000000000001800A7
:1001400000000000000000000000003FC03C18015B
:10015000F0000000000000000000003FC0FF180792
:10016000FC0000000000000000000000E0FF180795
:10017000BC00007FF80000000001F800E1C01F860D
:100180000C000F800E0000000001FC0071C01FC6B3
:100190000C0038000180000000019C0071C01DE7C8
:1001A000FC00C0000040000000018E0731FE18F77F
:1001B000FC0300000040000000018E1FF0FF1877D4
:1001C00080060000006000000001863FF0079836BE
:1001D000000C000000300000000186383003983623
:1001E0000008000000100000000186307001983601
:1001F00000180000000800000001863860079836EB
:1002000000100000000C00000001863FE3FF98375B
:1002100080100000000400000001861FC3FE183794
:10022000F020000000040000000186000000003102
:10023000F020000000040000000180000000000029
:100240000040000000020000000000003C00000030
:1002500000C000000001000000000001E7E0000015
:1002600000807C0000010000000000FE003C000057
:100270000080C30000008000000003800007000031
:10028000008100800F80800000000C0000018000D1
:100290000082004030608000000038000000C00094
:1002A000008400404010400000006000000060003A
:1002B0000187FFE0400840000000600000001800D7
:1002C0000107C020C00840000000400000000C00F2
:1002D0000107C020FFFC20000000400000000400D7
:1002E00001078020F80420000000600000000400E6
:1002F00001060040F804200000003FE001F804007F
:10030000010200C0F004200000000FFFFFF7CC0046
:100310000103C380C00C100000001BC0003878002F
:1003200001003E0060181000000020C000003000F6
:100330000100000030301000000020000000180014
:10034000010000000FC0100000001F8000073800EF
:10035000010000000000100000001FF003FFE0009B
:100360000100000000001000000013FFFFE020006B
:1003700001000000001020000000138007C0600092
:100380000100000000102000000018000381F800A8
:10039000010020000020200000007780000F0C00EA
:1003A0000100300000602000000040FFFFF8040062
:1003B00001C0180001C0200000004000000004003F
:1003C00000C00F001E0030000000400000000400CC
:1003D00000C001FFE0001000000040000000040029
:1003E00000C00000000020000000600000000C00C1
:1003F00000C00000000030000000380000001800BD
:1004000000C0000000001000000007FFFFFFF00028
:1004100000E00000000010000000000000000000EC
:1004200000A000000000100000000000000000001C
:10043000009000000000100000000000000000001C
:100440000088000000001000000000000000000014
:10045000008C000000001000000000000000000000
:100460000084000000000000000000000000000008
:10047000000000000000000000000000000000007C
:10048000000000000000000000000000000000006C
:10049000000000000000000000000000000000005C
:1004A000000000000000000000000000000000004C
:1004B000000000000000000000000000000000003C
:1004C000000000000000000000000000000000002C
:1004D000000000000000000000000000000000001C
:1004E000000000000000000000000000000000000C
:1004F000002F000000000700070000147F147F1485
:1005000000242A7F2A12006264081323003649550A
:10051000225000000503000000001C2241000000E2
:1005200041221C000014083E08140008083E080878
:10053000000000A0600000080808080800006060D3
:100540000000002010080402003E5149453E000012
:10055000427F4000004261514946002141454B31F4
:10056000001814127F10002745454539003C4A49C0
:100570004930000171090503003649494936000632
:100580004949291E0000363600000000563600009A
:100590000008142241000014141414140000412215
:1005A000140800020151090600324959513E007CED
:1005B0001211127C007F49494936003E41414122D7
:1005C000007F4141221C007F49494941007F0909C0
:1005D0000901003E4149497A007F0808087F000070
:1005E000417F4100002040413F01007F081422412B
:1005F000007F40404040007F020C027F007F0408E3
:10060000107F003E4141413E007F09090906003E3E
:100610004151215E007F0919294600464949493167
:100620000001017F0101003F4040403F001F20408A
:10063000201F003F4038403F006314081463000748
:100640000870080700615149454300007F4141009F
:1006500000552A552A55000041417F00000402013F
:10066000020400404040404000000102040000201D
:1006700054545478007F484444380038444444205B
:1006800000384444487F00385454541800087E0908
:1006900001020018A4A4A47C007F080404780000D0
:1006A000447D4000004080847D00007F102844008D
:1006B0000000417F4000007C04180478007C08049E
:1006C000047800384444443800FC242424180018DA
:1006D000242418FC007C08040408004854545420C6
:1006E00000043F444020003C4040207C001C20404F
:1006F000201C003C4030403C004428102844001C92
:10070000A0A0A07C004464544C4400000877410041
:1007100000000063000000004177080000080408A2
:100720000804003A4040207A003D4040403D00210E
:1007300054545479007D1211127D003944444439D7
:10074000003D4242423D000205020000007E014998
:100750005573007C1010081C003048204830005CA5
:100760006202625C11241FBECFEFD8E0DEBFCDBFB6
:1007700011E0A0E0B1E0E6EAF1E102C005900D92DF
:10078000AA32B107D9F725E0AAE2B1E001C01D9273
:10079000AA32B207E1F70E947F050C94D1080C94AD
:1007A000000087FD1AC06034C0F4E62FE695E69598
:1007B000E69590E8E99FF0011124E80FF11D6770BC
:1007C00081E090E001C0880F6A95EAF7E65DFE4F90
:1007D0002081413019F4822B8083089580958223F3
:1007E000FBCF5F926F927F928F929F92AF92BF9258
:1007F000CF92DF92EF92FF920F931F93CF93DF93ED
:10080000A82E762EF22E042E000C550B40525109C4
:1008100026E0249FC001259F900D112410E000E0E8
:100820009C0128513B4F4901F401E00FF11FE49175
:10083000672CD12CC12CCE2FD0E0CE010C2C02C0C5
:10084000959587950A94E2F780FF10C0E12C5A2C09
:100850005E0CB12C662D6B0D41E0852D0E94D103FD
:10086000B394BF14B8F3E394EF1488F33FEFC31AC3
:10087000D30A6F0C88E0C816D104F9F60F5F1F4F3A
:10088000AF0C0630110581F6DF91CF911F910F91CA
:10089000FF90EF90DF90CF90BF90AF909F908F90A0
:1008A0007F906F905F900895DF92EF92FF920F9389
:1008B0001F93CF93DF93C82FD62F022F122F110F24
:1008C000120F110FD22EDD0CDD0CDD0C7A01F701B9
:1008D00041917F01442381F040322CF0202F6D2F75
:1008E0008C2F0E94F103C10FC7FFF1CFDD0DD03473
:1008F00008F0D0E0C0E0EBCFDF91CF911F910F91D6
:10090000FF90EF90DF9008956F927F928F929F9269
:10091000AF92BF92CF92DF92EF92FF920F931F930D
:10092000CF93DF93D82FC62F942E822E842F8D1B2A
:10093000990B8C0197FF03C0119501951109882D22
:100940008C1B990B7C0197FF03C0F194E194F10893
:10095000AA24BB24AE18BF0866246A94D91510F4E3
:100960006624639477247A94C81510F477247394DA
:100970006801CE18DF0841E06C2F8D2F0E94D10353
:100980009D1202C08C1681F0C601880F991F8A152E
:100990009B0534F0CE18DF08D60D081719075CF355
:1009A000C00ED11EC70DE7CFDF91CF911F910F91E0
:1009B000FF90EF90DF90CF90BF90AF909F908F907F
:1009C0007F906F900895CF92DF92EF92FF920F93F6
:1009D0001F93CF93C4E110E000E0F12CE12C83E2FF
:1009E000C82ED12CC701B6010E94A908362FC80114
:1009F000B6010E94A908AB01405C5F4F82E2E81A91
:100A0000F1080C5D1F4F2C2F6C2F80E4830F0E9488
:100A10008404CF5FC83331F7CF911F910F91FF90BE
:100A2000EF90DF90CF9008958093BB0084E880938F
:100A3000BC008091BC0087FFFCCF089584EA8093BE
:100A4000BC008091BC0087FFFCCF0895CF93DF935B
:100A50000E941E0588E70E94140580E00E9414058C
:100A600080E00E94140580E10E94140580EB0E9442
:100A7000140584E98093BC000E941E0588E70E944B
:100A8000140580E40E941405CAE2D1E089910E9415
:100A9000140585E0CA32D807C9F784E98093BC0001
:100AA000DF91CF910895CF93C82F0E941E0588E74C
:100AB0000E94140580E00E9414058C2F0E941405EA
:100AC00084E98093BC00CF910895CF93C091000139
:100AD00087EAC11101C086EA0E94530581E0C82758
:100AE000C0930001CF910895EAE2F1E080E094E044
:100AF000DF019C011D9221503040E1F708951092D2
:100B0000B90088E48093B8000E941E0588E70E941F
:100B1000140580E00E9414058EEA0E94140585EDFC
:100B20000E94140580E80E94140588EA0E941405BA
:100B30008FE30E94140583ED0E94140580E00E945B
:100B4000140580E40E9414058DE80E94140584E1D8
:100B50000E94140580E20E94140580E00E941405A2
:100B600081EA0E94140588EC0E9414058AED0E9417
:100B7000140582E10E94140581E80E9414058FE7A4
:100B80000E94140584EA0E9414058FEA0E9414054D
:100B900084E98093BC0081E80E9453058FEF0E9496
:100BA00053050E9474058091B40184608093B40160
:100BB00080913E02806180933E020E9426052FEFC5
:100BC00033ED80E3215030408040E1F700C0000069
:100BD0000E9474052FE34FE760E080E00E948404E8
:100BE00020E04FE76FE380E00E94840420E24FE7BB
:100BF00060E280E00E9484042FE340E460E080E44F
:100C00000E9484040E9426059FEF23ED30E391505B
:100C100020403040E1F700C000000E94740526E14A
:100C200041E366E18AE00E94840429E241E369E24B
:100C30008AE00E94840429E24AE066E18AE00E9498
:100C4000840429E241E366E181E30E948404C6E171
:100C50002C2F4DE66C2F86E40E948404CF5FCA32AD
:100C6000B9F70E9426058FEF93ED20E38150904065
:100C70002040E1F700C000000E9474054AE0842E85
:100C8000912CC0E25BEDC52EDD24DA9404E110E086
:100C9000B12CA12C60E4762E70E2672E41E030E2A8
:100CA000E32EE00E6E2D8C2F0E94D10341E06E2DBD
:100CB000F72CFC1A8F2D0E94D10341E0D62DD01BBA
:100CC0006D2F8C2F0E94D10341E06D2F8F2D0E943C
:100CD000D10341E06C2F8E2D0E94D10341E06C2F97
:100CE0008D2F0E94D10341E06F2D8E2D0E94D103E4
:100CF00041E06F2D8D2F0E94D1038FEFA81AB80A03
:100D00001C141D040CF013C201501109C501801BF5
:100D1000910B880F991F880F991F0A96C80ED91E2C
:100D2000CF5F34E0830E911C0A151B050CF0B6CF83
:100D3000FAE0AF2EB12C10E6A5EEEA2EFF24FA94CD
:100D4000CFE0D0E0D12CC12C00ECB0E29B2E80E8AB
:100D5000882E90E6792E6C2F605E262F602E611A09
:100D6000462D812F0E948404692D6C1B262F462D51
:100D7000812F0E948404682D611B262F5C2E30E693
:100D8000530E452D672C6C1A862D0E94840460EC4E
:100D9000610F262F452D862D0E9484049FEFC91ACE
:100DA000D90A1E141F040CF0C5C12197C6018C1B63
:100DB0009D0B880F991F880F991F0A96E80EF91E40
:100DC000115094E0A90EB11CCC15DD0524F60E944B
:100DD00026052FEF33ED80E3215030408040E1F7CE
:100DE00000C000000E9474052AE04CE362E384E145
:100DF0000E94840422E344E66AE08CE30E948404B7
:100E000022E344E162E384E60E9484040E94E30456
:100E10000E9426059FEF23ED30E3915020403040A3
:100E2000E1F700C000000E94740521E041E460E0A9
:100E300080E00E94F10322E041E051E064E180E0C3
:100E40000E94540423E04CE051E06CE280E00E94F8
:100E500054040E9426058FEF93ED20E381509040CB
:100E60002040E1F700C000000E947405D0E0C0E01F
:100E7000E12C00E810E0F12CEF2DE695E695E695E3
:100E8000EC0FFD2FF11DE851FF4FE4918F2D87707E
:100E9000980102C0359527958A95E2F7E22329F05B
:100EA00041E06E2D8F2D0E94D103F39430E8F312B0
:100EB000E3CFE3946096C11584E0D807E1F60E9481
:100EC00026059FEF27EA31E6915020403040E1F7B8
:100ED00000C000000E9474050E94E3040E942605E1
:100EE0008FEF93ED20E3815090402040E1F700C068
:100EF0000000CCE0D0E440E06C2F8D2F0E94D103A5
:100F0000DF5FD836C1F7CF5FC134A1F70E94260555
:100F10003FEF83ED90E3315080409040E1F700C017
:100F200000000E94740522E044E151E069E18AE09A
:100F30000E9454040E9426052FEF33EC89E02150D3
:100F400030408040E1F700C000000E9465050E942B
:100F500026059FEF23EC39E0915020403040E1F727
:100F600000C000000E9465050E9426058FEF93ECEB
:100F700029E0815090402040E1F700C000000E942D
:100F800065050E9426053FEF83EC99E031508040D3
:100F90009040E1F700C000000E9465050E94260510
:100FA0000E94740522E04BE151E064E180E00E9480
:100FB00054040E9426052FEF39E688E12150304085
:100FC0008040E1F700C0000086E20E94530580E007
:100FD0000E94530580E00E94530580E00E94530563
:100FE00087E00E94530580E00E9453058FEF0E9426
:100FF00053058FE20E9453059FEF2DE339E4915092
:1010000020403040E1F700C000008EE20E9453050E
:101010000E94740522E042E251E06AE280E20E940E
:1010200054040E942605C4E0D0E08AE291E024E066
:101030008A3A920709F081C0EAEAF4E080E011926E
:101040008F5F8038E1F70E9426053FEF83EC99E03F
:10105000315080409040E1F700C00000219729F70F
:101060000E94740570E8A72EB12C10E000E0780112
:1010700021E0E222FF24E29440EFE422E801D69549
:10108000C795FC2EF29460EFF622D8E1C8E340E069
:101090006D2F8C2F0E94D103CF5FC834C1F7DF5F63
:1010A000D832A1F734E0F39EE001112438E1932E09
:1010B000F12CD12CC12CC7018C0D9D1DFC0123E00E
:1010C000F695E7952A95E1F7EC0FFD1FE859FF4FDC
:1010D000E49187709927950102C0359527958A95E7
:1010E000E2F7E22331F041E0692D88E38C0D0E94A4
:1010F000D1033FEFC31AD30A80E1C816D104D9F651
:101100002496939498E29912D4CF0E9426052FEF4B
:1011100033EC89E0215030408040E1F700C000000E
:101120000F5F1F4F0430110509F0A1CF9ECFC80CEF
:10113000D91CF6CDEA0CFB1C43CEFC01DC01A05807
:10114000BF4F20E0CD013D9131932F5F2038D9F77B
:101150006ECF97FB072E16F4009407D077FD09D0C9
:101160000E94BD0807FC05D03EF4909581959F4FE5
:101170000895709561957F4F0895AA1BBB1B51E19F
:1011800007C0AA1FBB1FA617B70710F0A61BB70BF7
:10119000881F991F5A95A9F780959095BC01CD019C
:0611A0000895F894FFCF52
:1011A6000153534431333036203A29005465737461
:1011B600204F4B00494E56455254005343524F4C14
:0A11C6004C00425546464552000019
:00000001FF
